:020000005A2D77
:0E000600213083120313FD00FD0B07280800B4
:100014000F3083120313FC004730FD00FD0B102842
:0A002400FC0B10280000000008008B
:06002E00000000000800C4
:1000340083160313A21B212883120611232883127B
:1000440006158316221B2928831286112B28831256
:1000540086158316A21A31288312061233288312B6
:1000640006168316221A3928831286123B28831215
:10007400861639183F288617402886130617172036
:1000840006138316A2194928831206114B288312DA
:1000940006158316221951288312861153288312B8
:1000A40086158316A2185928831206125B28831218
:1000B4000616831622186128831286126328831277
:1000C4008616391867288617682886130617172096
:0E00D4000613391C6F280A207028032008002C
:0E00E200F201F101F001F801F3010030080015
:1000F000FB14FB1F8228FF30F300F200F100F00038
:08010000FA0DF20CFF300800BB
:100108007B15FB1F8E280130F300F201F101F0018D
:08011800FA0DF20CFF300800A3
:08012000FA1FF2130030080081
:100128000E3083120313FD00FD0B98280000080011
:10013800A0017208031DB1287108F2007008F100CF
:10014800F001A0157208031DB1287108F200F10131
:10015800A011201672080319BF282008F302031DF6
:10016800031CC3280310F21BC728F00DF10DF20D74
:10017800F30BB728C3280130FC007120CA280230CD
:0E018800FC008420CA280430FC0090200800EF
:1001960083120313391083162008A2001A2039147B
:0201A60008004F
:0E01A8008312031335088A0034088200080011
:1001B600831603132008F2007208F100F20A2108E0
:1001C600F000A10A700884000008F000710884009D
:1001D600700880007108840000080319F328DF28DE
:0601E6002008F0000800F3
:1001EC0083120313FA017308031D7A147708031D95
:1001FC00FA147A0803194229033A03190D297A18BB
:10020C000A29F61F40293E29F21F3E29402972086F
:10021C008039FA00F21376088039F6137A0603193E
:10022C001B297A0803193E29402977087302031900
:10023C002229031C36293A29760872020319292926
:10024C00031C36293A297508710203193029031C3D
:10025C0036293A29740870020319422903183A29DD
:10026C00FA08031940293E29FA0803193E294029A6
:10027C0003140800031008000314031508000800F9
:10028C0083120313FB017308031D770803199D29BF
:10029C0072087606FA007708F3077E30031C5A2999
:1002AC00F3020318A0295D29F302031CA329720889
:1002BC00F8007108FC007008FD00F817F617031021
:1002CC00F201F101F0011830A0007D1C77297408AF
:1002DC00F00775080318750FF10776080318760FE9
:1002EC00F207F20CF10CF00CF80CFC0CFD0C0310EA
:1002FC00A00B6B29F21B8729F80DF00DF10DF20DF7
:10030C00F3037B1B701C9929F81F9929F00A031918
:10031C00F10A0319F20A031D9929F20CF10CF00CE5
:10032C00F30A0319A029FA1FF2130030A529013092
:10033C007120A52902307820A529043084200000E2
:02034C000800A7
:10034E0083120313F8010830FC00700DF80D7408C9
:10035E00F8020318B429F8070310F00DFC0BAC29B2
:02036E00080085
:06037000FB15FF30080040
:1003760083120313EE01EF016308EA006408EB0041
:100386006508EC006608ED006D08FF3A031DD529E7
:100396006C08FF3A031DD5296B08FF3A031DD529C2
:1003A6006A08FF3A031DE02967088316A0002A3071
:1003B600A100DB200330F000BA2B01308312E800E5
:1003C600EC1FF02980306C06F0007008EC00E80A9B
:1003D600670884002D308000E70A0030F0006D06C3
:1003E600031DFF2970086C06031DFF2970086B06A4
:1003F600031DFF296A08003A031D092A67088316A8
:10040600A0002E30A100DB20F001BA2B83126D086C
:10041600FF3A031D182A6C08003A031D182A6B08B8
:10042600003A031D182A6A08003A031D242A6708A1
:100436008316A0003030A100DB2083126808F0008C
:10044600BA2B0030F4000030F5000030F6007F30A3
:10045600F7006A08F0006B08F1006C08F2006D08FE
:10046600F300F620013003180030F000700803197D
:10047600572A6A08F0006B08F1006C08F2006D0854
:10048600F3000030F4000030F5002030F600823032
:10049600F70046217008EA007108EB007208EC00CC
:1004A6007308ED00EF03242A0030F4000030F50055
:1004B6002030F6008230F7006A08F0006B08F10081
:1004C6006C08F2006D08F300F6200130031C0030C2
:1004D600F000700803198A2A6A08F0006B08F10018
:1004E6006C08F2006D08F300CD30F400CC30F50056
:1004F6004C30F6007B30F70046217008EA007108A0
:10050600EB007208EC007308ED00EF0A572AFF3083
:100516006A05F800FF306B05F9007F306C05FA00BC
:1005260000306D05FB007808F4007908F5007A08BC
:10053600F6007B08F700F40DF50DF60DF70D7410B7
:1005460000306A05F00000306B05F10000306C05E4
:10055600F200FF306D05F3007008EA007108EB0049
:100566007208EC007308ED0074086A04F000750860
:100576006B04F10076086C04F20077086D04F30052
:100586007008EA007108EB007208EC007308ED00D1
:100596007F306D02F0007008E9000130ED00700850
:1005A600F4006A08F0006B08F1006C08F2006D08B0
:1005B600F30074080319E62AF00DF10DF20DF30DA0
:1005C6007010FF3EDD2A7008EA007108EB00720821
:1005D600EC007308ED006D08303EF00067088400FB
:1005E60070088000E70A80306F06F0008030013A1C
:1005F6007002031C072B8030063AF00080306F062D
:100606007002031C072B0E2B670884002E30800017
:10061600E70A0130EE000630E9006908003A0319DE
:100626006C2BED016A08F0006B08F1006C08F20013
:100636006D08F300F00DF10DF20DF30D7010F00DD5
:10064600F10DF20DF30D70106A08F0076B08031830
:100656006B0FF1076C0803186C0FF2076D0803188F
:100666006D0FF3077008EA007108EB007208EC00E2
:100676007308ED006A08F0006B08F1006C08F200E0
:100686006D08F300F00DF10DF20DF30D701070080A
:10069600EA007108EB007208EC007308ED006D08C3
:1006A600303EF0006708840070088000E70A6E0894
:1006B600003A031D6A2BEF036F08003A031D6A2BED
:1006C600670884002E308000E70A0130EE00E90357
:1006D600102BFF30670784000008303A031D752B86
:1006E600E7036C2BFF306707840000082E3A031DD2
:1006F6007D2BE7036F08003A0319B62B67088400C1
:1007060065308000E70A80306F06F0008030003ADE
:1007160070020318962B670884002D308000E70AC4
:100726006F08003CEF006F08E9006F08093C0318EA
:10073600A82B0A30F4006908F000A7213030F00732
:100746006708840070088000E70A0A30F400690828
:10075600F000A7217808F0003030F0076708840021
:1007660070088000E70A670884008001F00108002D
:10077600831203139F01C0309F0483161F179F1710
:1007860083126308F000F00D7010F00D7010F00D7C
:10079600701070089F041F1494201F151F1DD52B61
:1007A6000000D12B1F101E08F100F00183161E0851
:0807B600F0040030F10408001A
:1007BE00831203137408003A031DFA2B7508003ACE
:1007CE00031DFA2B7608003A031DFA2B7708003A20
:1007DE00031DFA2BFF30F000FF30F1007F30F200E6
:1007EE00FF30F300952C8312031377080319892C1D
:1007FE00730803198C2C720876068039FA00F217EA
:10080E00F617A0017208F8007108FC007008FD00D0
:10081E007408FD027508031C750FFC027608031C94
:10082E00760FF802F801FC01FD01031C252C0310C4
:10083E00F20CF10CF00CF80C0130A0007708F3026A
:10084E00031C2F2C7E302007F30703188F2C342C1B
:10085E007E302007F307031C922C1830FA07FD0D8B
:10086E00FC0DF80DF00DF10DF20DA00D7408F00257
:10087E007508031C750FF1027608031C760FF20241
:10088E00760DA004201C4D2C7D14582C7408F007F6
:10089E0075080318750FF10776080318760AF20724
:1008AE007D10FA031F307A05031D362C7B1B7D1C31
:1008BE007F2C0310F00DF10DF20DA00D7408F00257
:1008CE007508031C750FF1027608031C760FF202F1
:1008DE00760D20040139FD070318FC0A0319F80AE6
:1008EE00031D7F2CF80CFC0CFD0CF30A03198F2C46
:1008FE00FA1FF8137808F2007C08F1007D08F0006A
:10090E000030942C0130B821942C02307120942C9C
:0E091E0004307820942C08308420000008005B
:10092C00A82C803083120313E300BB2CC030E300EF
:10093C00BB2C9430E300BB2CD430E300BB2C8030B8
:10094C00E300BB2C831203136308013A0319972CA1
:10095C006308023A03199C2C6308033A03199F2C71
:10096C006308043A0319A22CA52C6403F000630855
:10097C00F0077008E30070088316A2001A203910E3
:10098C00E60166086507840000080319D62C660882
:10099C006507840000088316A000CB20E60AC72C4C
:0409AC0039140800F2
:1009B0008316031306138613861206128611061178
:1009C00083120613861306118611061286120A2058
:1009D0000A200A20061686160617172006130A2074
:1009E0000617172006130A200617172006130A20D9
:1009F00086120617172006130A200617172006135B
:100A0000061206150617172006130A200611861669
:100A100006171720061386120617172006130A203A
:100A200006171720061386160617172006130A2026
:100A30008612061717200613061586150616861643
:0C0A40000617172006130A2039140800BE
:100A4C00FF3083120313B600FF30B700FF30B8003D
:100A5C00FF309F01C0309F0483161F179F1783120E
:040A6C001F1408004B
:100A7000831203137008F8007108F000F101F2010D
:100A8000F301FB01FC019630F300FA017008F1005C
:0C0A90007808F000F801F2019C2008003A
:100A9C00D4208A110A128000840AB40A0319B50AF8
:080AAC00F003031D4E2D0800AC
:100AB4004626FF3083120313850001308316850018
:100AC40086012625D82401308316A2001A200C3072
:100AD4008316A2001A200130E3000130E400213023
:100AE400E50096241530FB004B30FC00BE30FD00C1
:100AF400FD0B7A2DFC0B7A2DFB0B7A2D0000E30104
:100B0400BB2338257008C5007108C6007208C700E9
:100B14007308C8000130E300BB2338257008DF00E8
:100B24007108E0007208E1007308E2005F08C10088
:100B34006008C2006108C3006208C4004508F000F0
:100B44004608F1004708F2004808F3000030F400BA
:100B54000030F5002030F6008130F70046210030E7
:100B6400F4000030F5000030F6008930F700DF2390
:100B74007008DB007108DC007208DD007308DE0019
:100B84005B08C5005C08C6005D08C7005E08C800B5
:100B94005F08F0006008F1006108F2006208F300E9
:100BA4000030F4000030F5002030F6008130F7000A
:100BB40046210030F4000030F5000030F6008930A2
:100BC400F700DF237008C1007108C2007208C30077
:100BD4007308C4005B08F4005C08F5005D08F600C7
:100BE4005E08F70046217008C9007108CA0072083F
:100BF400CB007308CC004508E3004608E40047082E
:100C0400E5004808E6005430E700BB2183120313D3
:100C14004908E3004A08E4004B08E5004C08E600F4
:100C24004D30E700BB21831203134108E30042085F
:100C3400E4004308E5004408E6003A30E700BB213D
:100C4400023083120313E3000130E4004D30E50069
:060C54009624FD2D2C2E5C
:100C8C0021308400133083120313F0003230B4008F
:080C9C000630B5004E250800EA
:100C640050344F3457344534523420344934533497
:020C740000344A
:080C76004E3461344E340034A9
:040C7E0030340034DA
:080C820049344E3446340034BD
:02400E004A2F37
:00000001FF
